{
  "contractName": "Exchange",
  "abi": [
    {
      "inputs": [
        {
          "internalType": "address",
          "name": "_feeAccount",
          "type": "address"
        },
        {
          "internalType": "uint256",
          "name": "_feeParcent",
          "type": "uint256"
        }
      ],
      "stateMutability": "nonpayable",
      "type": "constructor"
    },
    {
      "anonymous": false,
      "inputs": [
        {
          "indexed": false,
          "internalType": "uint256",
          "name": "id",
          "type": "uint256"
        },
        {
          "indexed": false,
          "internalType": "address",
          "name": "user",
          "type": "address"
        },
        {
          "indexed": false,
          "internalType": "address",
          "name": "tokenGet",
          "type": "address"
        },
        {
          "indexed": false,
          "internalType": "uint256",
          "name": "amountGet",
          "type": "uint256"
        },
        {
          "indexed": false,
          "internalType": "address",
          "name": "tokenGive",
          "type": "address"
        },
        {
          "indexed": false,
          "internalType": "uint256",
          "name": "amountGive",
          "type": "uint256"
        },
        {
          "indexed": false,
          "internalType": "uint256",
          "name": "timestamp",
          "type": "uint256"
        }
      ],
      "name": "Cancel",
      "type": "event"
    },
    {
      "anonymous": false,
      "inputs": [
        {
          "indexed": false,
          "internalType": "address",
          "name": "token",
          "type": "address"
        },
        {
          "indexed": false,
          "internalType": "address",
          "name": "user",
          "type": "address"
        },
        {
          "indexed": false,
          "internalType": "uint256",
          "name": "amount",
          "type": "uint256"
        },
        {
          "indexed": false,
          "internalType": "uint256",
          "name": "balance",
          "type": "uint256"
        }
      ],
      "name": "Deposit",
      "type": "event"
    },
    {
      "anonymous": false,
      "inputs": [
        {
          "indexed": false,
          "internalType": "uint256",
          "name": "id",
          "type": "uint256"
        },
        {
          "indexed": false,
          "internalType": "address",
          "name": "user",
          "type": "address"
        },
        {
          "indexed": false,
          "internalType": "address",
          "name": "tokenGet",
          "type": "address"
        },
        {
          "indexed": false,
          "internalType": "uint256",
          "name": "amountGet",
          "type": "uint256"
        },
        {
          "indexed": false,
          "internalType": "address",
          "name": "tokenGive",
          "type": "address"
        },
        {
          "indexed": false,
          "internalType": "uint256",
          "name": "amountGive",
          "type": "uint256"
        },
        {
          "indexed": false,
          "internalType": "uint256",
          "name": "timestamp",
          "type": "uint256"
        }
      ],
      "name": "Order",
      "type": "event"
    },
    {
      "anonymous": false,
      "inputs": [
        {
          "indexed": false,
          "internalType": "uint256",
          "name": "id",
          "type": "uint256"
        },
        {
          "indexed": false,
          "internalType": "address",
          "name": "user",
          "type": "address"
        },
        {
          "indexed": false,
          "internalType": "address",
          "name": "tokenGet",
          "type": "address"
        },
        {
          "indexed": false,
          "internalType": "uint256",
          "name": "amountGet",
          "type": "uint256"
        },
        {
          "indexed": false,
          "internalType": "address",
          "name": "tokenGive",
          "type": "address"
        },
        {
          "indexed": false,
          "internalType": "uint256",
          "name": "amountGive",
          "type": "uint256"
        },
        {
          "indexed": false,
          "internalType": "uint256",
          "name": "timestamp",
          "type": "uint256"
        }
      ],
      "name": "Trade",
      "type": "event"
    },
    {
      "anonymous": false,
      "inputs": [
        {
          "indexed": false,
          "internalType": "address",
          "name": "token",
          "type": "address"
        },
        {
          "indexed": false,
          "internalType": "address",
          "name": "user",
          "type": "address"
        },
        {
          "indexed": false,
          "internalType": "uint256",
          "name": "amount",
          "type": "uint256"
        },
        {
          "indexed": false,
          "internalType": "uint256",
          "name": "balance",
          "type": "uint256"
        }
      ],
      "name": "Withdraw",
      "type": "event"
    },
    {
      "inputs": [],
      "name": "feeAccount",
      "outputs": [
        {
          "internalType": "address",
          "name": "",
          "type": "address"
        }
      ],
      "stateMutability": "view",
      "type": "function",
      "constant": true
    },
    {
      "inputs": [],
      "name": "feePercent",
      "outputs": [
        {
          "internalType": "uint256",
          "name": "",
          "type": "uint256"
        }
      ],
      "stateMutability": "view",
      "type": "function",
      "constant": true
    },
    {
      "inputs": [
        {
          "internalType": "uint256",
          "name": "",
          "type": "uint256"
        }
      ],
      "name": "orderCancelled",
      "outputs": [
        {
          "internalType": "bool",
          "name": "",
          "type": "bool"
        }
      ],
      "stateMutability": "view",
      "type": "function",
      "constant": true
    },
    {
      "inputs": [
        {
          "internalType": "uint256",
          "name": "",
          "type": "uint256"
        }
      ],
      "name": "orderFilled",
      "outputs": [
        {
          "internalType": "bool",
          "name": "",
          "type": "bool"
        }
      ],
      "stateMutability": "view",
      "type": "function",
      "constant": true
    },
    {
      "inputs": [
        {
          "internalType": "uint256",
          "name": "",
          "type": "uint256"
        }
      ],
      "name": "orders",
      "outputs": [
        {
          "internalType": "uint256",
          "name": "id",
          "type": "uint256"
        },
        {
          "internalType": "address",
          "name": "user",
          "type": "address"
        },
        {
          "internalType": "address",
          "name": "tokenGet",
          "type": "address"
        },
        {
          "internalType": "uint256",
          "name": "amountGet",
          "type": "uint256"
        },
        {
          "internalType": "address",
          "name": "tokenGive",
          "type": "address"
        },
        {
          "internalType": "uint256",
          "name": "amountGive",
          "type": "uint256"
        },
        {
          "internalType": "uint256",
          "name": "timestamp",
          "type": "uint256"
        }
      ],
      "stateMutability": "view",
      "type": "function",
      "constant": true
    },
    {
      "inputs": [
        {
          "internalType": "address",
          "name": "",
          "type": "address"
        },
        {
          "internalType": "address",
          "name": "",
          "type": "address"
        }
      ],
      "name": "tokens",
      "outputs": [
        {
          "internalType": "uint256",
          "name": "",
          "type": "uint256"
        }
      ],
      "stateMutability": "view",
      "type": "function",
      "constant": true
    },
    {
      "inputs": [],
      "name": "totalOrder",
      "outputs": [
        {
          "internalType": "uint256",
          "name": "",
          "type": "uint256"
        }
      ],
      "stateMutability": "view",
      "type": "function",
      "constant": true
    },
    {
      "stateMutability": "payable",
      "type": "receive",
      "payable": true
    },
    {
      "inputs": [],
      "name": "depositEther",
      "outputs": [],
      "stateMutability": "payable",
      "type": "function",
      "payable": true
    },
    {
      "inputs": [
        {
          "internalType": "uint256",
          "name": "_amount",
          "type": "uint256"
        }
      ],
      "name": "withdrawEther",
      "outputs": [],
      "stateMutability": "nonpayable",
      "type": "function"
    },
    {
      "inputs": [
        {
          "internalType": "address",
          "name": "_token",
          "type": "address"
        },
        {
          "internalType": "uint256",
          "name": "_amount",
          "type": "uint256"
        }
      ],
      "name": "depositToken",
      "outputs": [],
      "stateMutability": "nonpayable",
      "type": "function"
    },
    {
      "inputs": [
        {
          "internalType": "address",
          "name": "_token",
          "type": "address"
        },
        {
          "internalType": "uint256",
          "name": "_amount",
          "type": "uint256"
        }
      ],
      "name": "withdrawToken",
      "outputs": [],
      "stateMutability": "nonpayable",
      "type": "function"
    },
    {
      "inputs": [
        {
          "internalType": "address",
          "name": "_token",
          "type": "address"
        },
        {
          "internalType": "address",
          "name": "_user",
          "type": "address"
        }
      ],
      "name": "balanceOf",
      "outputs": [
        {
          "internalType": "uint256",
          "name": "",
          "type": "uint256"
        }
      ],
      "stateMutability": "view",
      "type": "function",
      "constant": true
    },
    {
      "inputs": [
        {
          "internalType": "address",
          "name": "_tokenGet",
          "type": "address"
        },
        {
          "internalType": "uint256",
          "name": "_amountGet",
          "type": "uint256"
        },
        {
          "internalType": "address",
          "name": "_tokenGive",
          "type": "address"
        },
        {
          "internalType": "uint256",
          "name": "_amountGive",
          "type": "uint256"
        }
      ],
      "name": "makeOrder",
      "outputs": [],
      "stateMutability": "nonpayable",
      "type": "function"
    },
    {
      "inputs": [
        {
          "internalType": "uint256",
          "name": "_id",
          "type": "uint256"
        }
      ],
      "name": "cancelOrder",
      "outputs": [],
      "stateMutability": "nonpayable",
      "type": "function"
    },
    {
      "inputs": [
        {
          "internalType": "uint256",
          "name": "_id",
          "type": "uint256"
        }
      ],
      "name": "fillOrder",
      "outputs": [],
      "stateMutability": "nonpayable",
      "type": "function"
    }
  ],
  "bytecode": "0x60806040523480156200001157600080fd5b5060405162001c9338038062001c9383398181016040528101906200003791906200012b565b816000806101000a81548173ffffffffffffffffffffffffffffffffffffffff021916908373ffffffffffffffffffffffffffffffffffffffff16021790555080600181905550505062000172565b600080fd5b600073ffffffffffffffffffffffffffffffffffffffff82169050919050565b6000620000b8826200008b565b9050919050565b620000ca81620000ab565b8114620000d657600080fd5b50565b600081519050620000ea81620000bf565b92915050565b6000819050919050565b6200010581620000f0565b81146200011157600080fd5b50565b6000815190506200012581620000fa565b92915050565b6000806040838503121562000145576200014462000086565b5b60006200015585828601620000d9565b9250506020620001688582860162000114565b9150509250929050565b611b1180620001826000396000f3fe6080604052600436106100ec5760003560e01c806367b830ad1161008a5780639e281a98116100595780639e281a98146102cd578063a85c38ef146102f6578063e9c1896614610339578063f7888aec14610376576100f6565b806367b830ad146102465780637fd6f15c1461026f57806398ea5fca1461029a5780639a5c90aa146102a4576100f6565b80634a93e0da116100c65780634a93e0da14610178578063508493bc146101b5578063514fcac7146101f257806365e17c9d1461021b576100f6565b8063216e2a97146100fb578063338b5dea146101265780633bed33ce1461014f576100f6565b366100f657600080fd5b600080fd5b34801561010757600080fd5b506101106103b3565b60405161011d9190611595565b60405180910390f35b34801561013257600080fd5b5061014d6004803603810190610148919061163f565b6103b9565b005b34801561015b57600080fd5b506101766004803603810190610171919061167f565b6105cb565b005b34801561018457600080fd5b5061019f600480360381019061019a919061167f565b6107eb565b6040516101ac91906116c7565b60405180910390f35b3480156101c157600080fd5b506101dc60048036038101906101d791906116e2565b61080b565b6040516101e99190611595565b60405180910390f35b3480156101fe57600080fd5b506102196004803603810190610214919061167f565b610830565b005b34801561022757600080fd5b506102306109a2565b60405161023d9190611731565b60405180910390f35b34801561025257600080fd5b5061026d6004803603810190610268919061167f565b6109c6565b005b34801561027b57600080fd5b50610284610b0d565b6040516102919190611595565b60405180910390f35b6102a2610b13565b005b3480156102b057600080fd5b506102cb60048036038101906102c6919061174c565b610c62565b005b3480156102d957600080fd5b506102f460048036038101906102ef919061163f565b610e51565b005b34801561030257600080fd5b5061031d6004803603810190610318919061167f565b6110b1565b60405161033097969594939291906117b3565b60405180910390f35b34801561034557600080fd5b50610360600480360381019061035b919061167f565b611153565b60405161036d91906116c7565b60405180910390f35b34801561038257600080fd5b5061039d600480360381019061039891906116e2565b611173565b6040516103aa9190611595565b60405180910390f35b60065481565b600073ffffffffffffffffffffffffffffffffffffffff168273ffffffffffffffffffffffffffffffffffffffff16036103f257600080fd5b8173ffffffffffffffffffffffffffffffffffffffff166323b872dd3330846040518463ffffffff1660e01b815260040161042f93929190611822565b6020604051808303816000875af115801561044e573d6000803e3d6000fd5b505050506040513d601f19601f820116820180604052508101906104729190611885565b61047b57600080fd5b80600260008473ffffffffffffffffffffffffffffffffffffffff1673ffffffffffffffffffffffffffffffffffffffff16815260200190815260200160002060003373ffffffffffffffffffffffffffffffffffffffff1673ffffffffffffffffffffffffffffffffffffffff168152602001908152602001600020600082825461050791906118e1565b925050819055507fdcbc1c05240f31ff3ad067ef1ee35ce4997762752e3a095284754544f4c709d7823383600260008773ffffffffffffffffffffffffffffffffffffffff1673ffffffffffffffffffffffffffffffffffffffff16815260200190815260200160002060003373ffffffffffffffffffffffffffffffffffffffff1673ffffffffffffffffffffffffffffffffffffffff168152602001908152602001600020546040516105bf9493929190611937565b60405180910390a15050565b80600260008073ffffffffffffffffffffffffffffffffffffffff1673ffffffffffffffffffffffffffffffffffffffff16815260200190815260200160002060003373ffffffffffffffffffffffffffffffffffffffff1673ffffffffffffffffffffffffffffffffffffffff16815260200190815260200160002054101561065457600080fd5b80600260008073ffffffffffffffffffffffffffffffffffffffff1673ffffffffffffffffffffffffffffffffffffffff16815260200190815260200160002060003373ffffffffffffffffffffffffffffffffffffffff1673ffffffffffffffffffffffffffffffffffffffff16815260200190815260200160002060008282546106e0919061197c565b925050819055503373ffffffffffffffffffffffffffffffffffffffff166108fc829081150290604051600060405180830381858888f1935050505015801561072d573d6000803e3d6000fd5b507ff341246adaac6f497bc2a656f546ab9e182111d630394f0c57c710a59a2cb56760003383600260008073ffffffffffffffffffffffffffffffffffffffff1673ffffffffffffffffffffffffffffffffffffffff16815260200190815260200160002060003373ffffffffffffffffffffffffffffffffffffffff1673ffffffffffffffffffffffffffffffffffffffff168152602001908152602001600020546040516107e09493929190611937565b60405180910390a150565b60056020528060005260406000206000915054906101000a900460ff1681565b6002602052816000526040600020602052806000526040600020600091509150505481565b60006003600083815260200190815260200160002090503373ffffffffffffffffffffffffffffffffffffffff168160010160009054906101000a900473ffffffffffffffffffffffffffffffffffffffff1673ffffffffffffffffffffffffffffffffffffffff16146108a357600080fd5b818160000154146108b357600080fd5b60016004600084815260200190815260200160002060006101000a81548160ff0219169083151502179055507f77de1da0be5f2d3b110d05c6694e5c4ff2d9da7cd23d84353ecf78c7b5acec6181600001548260010160009054906101000a900473ffffffffffffffffffffffffffffffffffffffff168360020160009054906101000a900473ffffffffffffffffffffffffffffffffffffffff1684600301548560040160009054906101000a900473ffffffffffffffffffffffffffffffffffffffff168660050154876006015460405161099697969594939291906117b3565b60405180910390a15050565b60008054906101000a900473ffffffffffffffffffffffffffffffffffffffff1681565b6000811180156109d857506006548111155b6109e157600080fd5b6005600082815260200190815260200160002060009054906101000a900460ff1615610a0c57600080fd5b6004600082815260200190815260200160002060009054906101000a900460ff1615610a3757600080fd5b6000600360008381526020019081526020016000209050610ad981600001548260010160009054906101000a900473ffffffffffffffffffffffffffffffffffffffff168360020160009054906101000a900473ffffffffffffffffffffffffffffffffffffffff1684600301548560040160009054906101000a900473ffffffffffffffffffffffffffffffffffffffff16866005015487600601546111fa565b6001600560008360000154815260200190815260200160002060006101000a81548160ff0219169083151502179055505050565b60015481565b34600260008073ffffffffffffffffffffffffffffffffffffffff1673ffffffffffffffffffffffffffffffffffffffff16815260200190815260200160002060003373ffffffffffffffffffffffffffffffffffffffff1673ffffffffffffffffffffffffffffffffffffffff1681526020019081526020016000206000828254610b9f91906118e1565b925050819055507fdcbc1c05240f31ff3ad067ef1ee35ce4997762752e3a095284754544f4c709d760003334600260008073ffffffffffffffffffffffffffffffffffffffff1673ffffffffffffffffffffffffffffffffffffffff16815260200190815260200160002060003373ffffffffffffffffffffffffffffffffffffffff1673ffffffffffffffffffffffffffffffffffffffff16815260200190815260200160002054604051610c589493929190611937565b60405180910390a1565b60066000815480929190610c75906119b0565b91905055506040518060e0016040528060065481526020013373ffffffffffffffffffffffffffffffffffffffff1681526020018573ffffffffffffffffffffffffffffffffffffffff1681526020018481526020018373ffffffffffffffffffffffffffffffffffffffff168152602001828152602001428152506003600060065481526020019081526020016000206000820151816000015560208201518160010160006101000a81548173ffffffffffffffffffffffffffffffffffffffff021916908373ffffffffffffffffffffffffffffffffffffffff16021790555060408201518160020160006101000a81548173ffffffffffffffffffffffffffffffffffffffff021916908373ffffffffffffffffffffffffffffffffffffffff1602179055506060820151816003015560808201518160040160006101000a81548173ffffffffffffffffffffffffffffffffffffffff021916908373ffffffffffffffffffffffffffffffffffffffff16021790555060a0820151816005015560c082015181600601559050507f9d33853d43e3607b4cc01fdc78338ff2dca6fef7db9232dae6d3eb55fbc3b109600654338686868642604051610e4397969594939291906117b3565b60405180910390a150505050565b80600260008473ffffffffffffffffffffffffffffffffffffffff1673ffffffffffffffffffffffffffffffffffffffff16815260200190815260200160002060003373ffffffffffffffffffffffffffffffffffffffff1673ffffffffffffffffffffffffffffffffffffffff168152602001908152602001600020541015610eda57600080fd5b8173ffffffffffffffffffffffffffffffffffffffff1663a9059cbb33836040518363ffffffff1660e01b8152600401610f159291906119f8565b6020604051808303816000875af1158015610f34573d6000803e3d6000fd5b505050506040513d601f19601f82011682018060405250810190610f589190611885565b610f6157600080fd5b80600260008473ffffffffffffffffffffffffffffffffffffffff1673ffffffffffffffffffffffffffffffffffffffff16815260200190815260200160002060003373ffffffffffffffffffffffffffffffffffffffff1673ffffffffffffffffffffffffffffffffffffffff1681526020019081526020016000206000828254610fed919061197c565b925050819055507ff341246adaac6f497bc2a656f546ab9e182111d630394f0c57c710a59a2cb567823383600260008773ffffffffffffffffffffffffffffffffffffffff1673ffffffffffffffffffffffffffffffffffffffff16815260200190815260200160002060003373ffffffffffffffffffffffffffffffffffffffff1673ffffffffffffffffffffffffffffffffffffffff168152602001908152602001600020546040516110a59493929190611937565b60405180910390a15050565b60036020528060005260406000206000915090508060000154908060010160009054906101000a900473ffffffffffffffffffffffffffffffffffffffff16908060020160009054906101000a900473ffffffffffffffffffffffffffffffffffffffff16908060030154908060040160009054906101000a900473ffffffffffffffffffffffffffffffffffffffff16908060050154908060060154905087565b60046020528060005260406000206000915054906101000a900460ff1681565b6000600260008473ffffffffffffffffffffffffffffffffffffffff1673ffffffffffffffffffffffffffffffffffffffff16815260200190815260200160002060008373ffffffffffffffffffffffffffffffffffffffff1673ffffffffffffffffffffffffffffffffffffffff16815260200190815260200160002054905092915050565b60006001548361120a9190611a21565b9050600060648261121b9190611aaa565b90506000818761122b91906118e1565b905080600260008a73ffffffffffffffffffffffffffffffffffffffff1673ffffffffffffffffffffffffffffffffffffffff16815260200190815260200160002060003373ffffffffffffffffffffffffffffffffffffffff1673ffffffffffffffffffffffffffffffffffffffff16815260200190815260200160002060008282546112b9919061197c565b9250508190555086600260008a73ffffffffffffffffffffffffffffffffffffffff1673ffffffffffffffffffffffffffffffffffffffff16815260200190815260200160002060008b73ffffffffffffffffffffffffffffffffffffffff1673ffffffffffffffffffffffffffffffffffffffff168152602001908152602001600020600082825461134c91906118e1565b9250508190555081600260008a73ffffffffffffffffffffffffffffffffffffffff1673ffffffffffffffffffffffffffffffffffffffff16815260200190815260200160002060008060009054906101000a900473ffffffffffffffffffffffffffffffffffffffff1673ffffffffffffffffffffffffffffffffffffffff1673ffffffffffffffffffffffffffffffffffffffff168152602001908152602001600020600082825461140091906118e1565b9250508190555084600260008873ffffffffffffffffffffffffffffffffffffffff1673ffffffffffffffffffffffffffffffffffffffff16815260200190815260200160002060008b73ffffffffffffffffffffffffffffffffffffffff1673ffffffffffffffffffffffffffffffffffffffff1681526020019081526020016000206000828254611493919061197c565b9250508190555084600260008873ffffffffffffffffffffffffffffffffffffffff1673ffffffffffffffffffffffffffffffffffffffff16815260200190815260200160002060003373ffffffffffffffffffffffffffffffffffffffff1673ffffffffffffffffffffffffffffffffffffffff168152602001908152602001600020600082825461152691906118e1565b925050819055507faba0fc968824c4949185cfdd55a197a4d41616a98cc2d97fd34224ebcdf767448a8a8a8a8a8a8a60405161156897969594939291906117b3565b60405180910390a150505050505050505050565b6000819050919050565b61158f8161157c565b82525050565b60006020820190506115aa6000830184611586565b92915050565b600080fd5b600073ffffffffffffffffffffffffffffffffffffffff82169050919050565b60006115e0826115b5565b9050919050565b6115f0816115d5565b81146115fb57600080fd5b50565b60008135905061160d816115e7565b92915050565b61161c8161157c565b811461162757600080fd5b50565b60008135905061163981611613565b92915050565b60008060408385031215611656576116556115b0565b5b6000611664858286016115fe565b92505060206116758582860161162a565b9150509250929050565b600060208284031215611695576116946115b0565b5b60006116a38482850161162a565b91505092915050565b60008115159050919050565b6116c1816116ac565b82525050565b60006020820190506116dc60008301846116b8565b92915050565b600080604083850312156116f9576116f86115b0565b5b6000611707858286016115fe565b9250506020611718858286016115fe565b9150509250929050565b61172b816115d5565b82525050565b60006020820190506117466000830184611722565b92915050565b60008060008060808587031215611766576117656115b0565b5b6000611774878288016115fe565b94505060206117858782880161162a565b9350506040611796878288016115fe565b92505060606117a78782880161162a565b91505092959194509250565b600060e0820190506117c8600083018a611586565b6117d56020830189611722565b6117e26040830188611722565b6117ef6060830187611586565b6117fc6080830186611722565b61180960a0830185611586565b61181660c0830184611586565b98975050505050505050565b60006060820190506118376000830186611722565b6118446020830185611722565b6118516040830184611586565b949350505050565b611862816116ac565b811461186d57600080fd5b50565b60008151905061187f81611859565b92915050565b60006020828403121561189b5761189a6115b0565b5b60006118a984828501611870565b91505092915050565b7f4e487b7100000000000000000000000000000000000000000000000000000000600052601160045260246000fd5b60006118ec8261157c565b91506118f78361157c565b9250827fffffffffffffffffffffffffffffffffffffffffffffffffffffffffffffffff0382111561192c5761192b6118b2565b5b828201905092915050565b600060808201905061194c6000830187611722565b6119596020830186611722565b6119666040830185611586565b6119736060830184611586565b95945050505050565b60006119878261157c565b91506119928361157c565b9250828210156119a5576119a46118b2565b5b828203905092915050565b60006119bb8261157c565b91507fffffffffffffffffffffffffffffffffffffffffffffffffffffffffffffffff82036119ed576119ec6118b2565b5b600182019050919050565b6000604082019050611a0d6000830185611722565b611a1a6020830184611586565b9392505050565b6000611a2c8261157c565b9150611a378361157c565b9250817fffffffffffffffffffffffffffffffffffffffffffffffffffffffffffffffff0483118215151615611a7057611a6f6118b2565b5b828202905092915050565b7f4e487b7100000000000000000000000000000000000000000000000000000000600052601260045260246000fd5b6000611ab58261157c565b9150611ac08361157c565b925082611ad057611acf611a7b565b5b82820490509291505056fea2646970667358221220f909018736dfafc6256be4db162c3ebaf5c0536453a8d0c074725370646f7e5864736f6c634300080d0033",
  "immutableReferences": {},
  "source": "// SPDX-License-Identifier: MIT\r\npragma solidity ^0.8.13;\r\n\r\nimport \"./Token.sol\";\r\n\r\ncontract Exchange {\r\n    // [] Set the fee account\r\n\r\n    address public feeAccount; // 2nd account at Ganache. The account that receive exchange fees\r\n    uint public feePercent; //  the fee as parcent\r\n    address constant ETHER = address(0); // store Ether in tokens mapping with black addresses. 2 works in one go.\r\n\r\n    mapping(address => mapping(address => uint256)) public tokens;\r\n    mapping(uint256 => _Order) public orders;\r\n    mapping(uint256 => bool) public orderCancelled;\r\n    mapping(uint256 => bool) public orderFilled;\r\n\r\n    uint256 public totalOrder;\r\n\r\n    event Deposit(address token, address user, uint256 amount, uint256 balance);\r\n    event Withdraw(\r\n        address token,\r\n        address user,\r\n        uint256 amount,\r\n        uint256 balance\r\n    );\r\n\r\n    event Order(\r\n        uint256 id,\r\n        address user,\r\n        address tokenGet,\r\n        uint256 amountGet,\r\n        address tokenGive,\r\n        uint256 amountGive,\r\n        uint256 timestamp\r\n    );\r\n\r\n    event Cancel(\r\n        uint256 id,\r\n        address user,\r\n        address tokenGet,\r\n        uint256 amountGet,\r\n        address tokenGive,\r\n        uint256 amountGive,\r\n        uint256 timestamp\r\n    );\r\n\r\n    event Trade(\r\n        uint256 id,\r\n        address user,\r\n        address tokenGet,\r\n        uint256 amountGet,\r\n        address tokenGive,\r\n        uint256 amountGive,\r\n        uint256 timestamp\r\n    );\r\n\r\n    struct _Order {\r\n        uint256 id;\r\n        address user;\r\n        address tokenGet;\r\n        uint256 amountGet;\r\n        address tokenGive;\r\n        uint256 amountGive;\r\n        uint256 timestamp;\r\n    }\r\n\r\n    constructor(address _feeAccount, uint _feeParcent) {\r\n        feeAccount = _feeAccount;\r\n        feePercent = _feeParcent;\r\n    }\r\n\r\n    // Fallback\r\n    receive() external payable {\r\n        revert();\r\n    }\r\n\r\n    // [] Deposit ether\r\n    function depositEther() public payable {\r\n        tokens[ETHER][msg.sender] += msg.value;\r\n        emit Deposit(ETHER, msg.sender, msg.value, tokens[ETHER][msg.sender]);\r\n    }\r\n\r\n    // [] Withdraw ether\r\n    function withdrawEther(uint256 _amount) public {\r\n        require(tokens[ETHER][msg.sender] >= _amount);\r\n        tokens[ETHER][msg.sender] -= _amount;\r\n        payable(msg.sender).transfer(_amount);\r\n        emit Withdraw(ETHER, msg.sender, _amount, tokens[ETHER][msg.sender]);\r\n    }\r\n\r\n    // [] Deposit tokens\r\n    function depositToken(address _token, uint _amount) public {\r\n        require(_token != ETHER);\r\n        require(Token(_token).transferFrom(msg.sender, address(this), _amount)); // send token to this contract\r\n        tokens[_token][msg.sender] += _amount; // manage deposit - update balance\r\n        emit Deposit(_token, msg.sender, _amount, tokens[_token][msg.sender]); // emit event\r\n    }\r\n\r\n    // [] Withdraw tokens\r\n    function withdrawToken(address _token, uint _amount) public {\r\n        require(tokens[_token][msg.sender] >= _amount);\r\n        require(Token(_token).transfer(msg.sender, _amount));\r\n        tokens[_token][msg.sender] -= _amount;\r\n        emit Withdraw(_token, msg.sender, _amount, tokens[_token][msg.sender]);\r\n    }\r\n\r\n    // [] Check balances\r\n    function balanceOf(\r\n        address _token,\r\n        address _user\r\n    ) public view returns (uint256) {\r\n        return tokens[_token][_user];\r\n    }\r\n\r\n    // [] Make order\r\n    function makeOrder(\r\n        address _tokenGet, // Token user want to purchase\r\n        uint256 _amountGet, // The amouts of tokens user wanna get\r\n        address _tokenGive,\r\n        uint256 _amountGive\r\n    ) public {\r\n        totalOrder++;\r\n        orders[totalOrder] = _Order(\r\n            totalOrder,\r\n            msg.sender,\r\n            _tokenGet,\r\n            _amountGet,\r\n            _tokenGive,\r\n            _amountGive,\r\n            block.timestamp\r\n        );\r\n        emit Order(\r\n            totalOrder,\r\n            msg.sender,\r\n            _tokenGet,\r\n            _amountGet,\r\n            _tokenGive,\r\n            _amountGive,\r\n            block.timestamp\r\n        );\r\n    }\r\n\r\n    // [] Cancel order\r\n    function cancelOrder(uint256 _id) public {\r\n        _Order storage _order = orders[_id];\r\n        require(address(_order.user) == msg.sender);\r\n        require(_order.id == _id); // The order must exist\r\n        orderCancelled[_id] = true;\r\n\r\n        emit Cancel(\r\n            _order.id,\r\n            _order.user,\r\n            _order.tokenGet,\r\n            _order.amountGet,\r\n            _order.tokenGive,\r\n            _order.amountGive,\r\n            _order.timestamp\r\n        );\r\n    }\r\n\r\n    // [] Fill order\r\n    function fillOrder(uint256 _id) public {\r\n        require(_id > 0 && _id <= totalOrder);\r\n        require(!orderFilled[_id]);\r\n        require(!orderCancelled[_id]);\r\n        _Order storage _order = orders[_id];\r\n        _trade(\r\n            _order.id,\r\n            _order.user,\r\n            _order.tokenGet,\r\n            _order.amountGet,\r\n            _order.tokenGive,\r\n            _order.amountGive,\r\n            _order.timestamp\r\n        );\r\n        orderFilled[_order.id] = true;\r\n    }\r\n\r\n    function _trade(\r\n        uint256 _orderId,\r\n        address _user,\r\n        address _tokenGet, // Token being received\r\n        uint256 _amountGet, // Amount being received\r\n        address _tokenGive, // Token being given\r\n        uint256 _amountGive, // Amount being given\r\n        uint256 _timestamp\r\n    ) internal {\r\n        // Fee is paid by the user who fills the order\r\n        // Fee deducted from _amountGive\r\n\r\n        uint256 _initialFeeAmount = _amountGive * feePercent;\r\n        uint256 _feeAmount = _initialFeeAmount / 100;\r\n        uint256 totalAmmountNeedToDeduct = _amountGet + _feeAmount;\r\n\r\n        // Execute trade >>>>>>>>>>>>>>>>>\r\n        // Deduct tokens from user1 (msg.sender)\r\n        tokens[_tokenGet][msg.sender] -= totalAmmountNeedToDeduct;\r\n        // Credit tokens to user2 (_user)\r\n        tokens[_tokenGet][_user] += _amountGet;\r\n\r\n        // Charge fees  >>>>>>>>>>>>>>>>>>>>>>\r\n        // Add the fee to the feeAccount\r\n        tokens[_tokenGet][feeAccount] += _feeAmount;\r\n        // Deduct tokens from user2 (_user)\r\n        tokens[_tokenGive][_user] -= _amountGive;\r\n        // Credit tokens to user1 (msg.sender)\r\n        tokens[_tokenGive][msg.sender] += _amountGive;\r\n\r\n        emit Trade(\r\n            _orderId, // Add the trade ID\r\n            _user, // The user making the trade\r\n            _tokenGet, // Token being received\r\n            _amountGet, // Amount being received\r\n            _tokenGive, // Token being given\r\n            _amountGive, // Amount being given\r\n            _timestamp\r\n        );\r\n    }\r\n}\r\n",
  "sourcePath": "G:\\Dapp Token Exchange (DEX) project\\dapp-token-exchange-dex-project\\src\\contracts\\Exchange.sol",
  "compiler": {
    "name": "solc",
    "version": "0.8.13+commit.abaa5c0e.Emscripten.clang"
  },
  "schemaVersion": "3.4.16",
  "updatedAt": "2024-11-21T10:32:14.512Z",
  "networkType": "ethereum",
  "devdoc": {
    "kind": "dev",
    "methods": {},
    "version": 1
  },
  "userdoc": {
    "kind": "user",
    "methods": {},
    "version": 1
  }
}